{
  "contractName": "Marketplace",
  "abi": [
    {
      "inputs": [],
      "payable": false,
      "stateMutability": "nonpayable",
      "type": "constructor"
    },
    {
      "anonymous": false,
      "inputs": [
        {
          "indexed": false,
          "internalType": "uint256",
          "name": "id",
          "type": "uint256"
        },
        {
          "indexed": false,
          "internalType": "string",
          "name": "name",
          "type": "string"
        },
        {
          "indexed": false,
          "internalType": "uint256",
          "name": "price",
          "type": "uint256"
        },
        {
          "indexed": false,
          "internalType": "address payable",
          "name": "owner",
          "type": "address"
        },
        {
          "indexed": false,
          "internalType": "bool",
          "name": "sale",
          "type": "bool"
        }
      ],
      "name": "ProductChanged",
      "type": "event"
    },
    {
      "anonymous": false,
      "inputs": [
        {
          "indexed": false,
          "internalType": "uint256",
          "name": "id",
          "type": "uint256"
        },
        {
          "indexed": false,
          "internalType": "string",
          "name": "name",
          "type": "string"
        },
        {
          "indexed": false,
          "internalType": "uint256",
          "name": "price",
          "type": "uint256"
        },
        {
          "indexed": false,
          "internalType": "address payable",
          "name": "owner",
          "type": "address"
        },
        {
          "indexed": false,
          "internalType": "bool",
          "name": "sale",
          "type": "bool"
        }
      ],
      "name": "ProductCreated",
      "type": "event"
    },
    {
      "anonymous": false,
      "inputs": [
        {
          "indexed": false,
          "internalType": "uint256",
          "name": "id",
          "type": "uint256"
        },
        {
          "indexed": false,
          "internalType": "string",
          "name": "name",
          "type": "string"
        },
        {
          "indexed": false,
          "internalType": "uint256",
          "name": "price",
          "type": "uint256"
        },
        {
          "indexed": false,
          "internalType": "address payable",
          "name": "owner",
          "type": "address"
        },
        {
          "indexed": false,
          "internalType": "bool",
          "name": "sale",
          "type": "bool"
        }
      ],
      "name": "ProductPurchased",
      "type": "event"
    },
    {
      "constant": true,
      "inputs": [],
      "name": "name",
      "outputs": [
        {
          "internalType": "string",
          "name": "",
          "type": "string"
        }
      ],
      "payable": false,
      "stateMutability": "view",
      "type": "function"
    },
    {
      "constant": true,
      "inputs": [],
      "name": "productCount",
      "outputs": [
        {
          "internalType": "uint256",
          "name": "",
          "type": "uint256"
        }
      ],
      "payable": false,
      "stateMutability": "view",
      "type": "function"
    },
    {
      "constant": true,
      "inputs": [
        {
          "internalType": "uint256",
          "name": "",
          "type": "uint256"
        }
      ],
      "name": "products",
      "outputs": [
        {
          "internalType": "uint256",
          "name": "id",
          "type": "uint256"
        },
        {
          "internalType": "string",
          "name": "name",
          "type": "string"
        },
        {
          "internalType": "uint256",
          "name": "price",
          "type": "uint256"
        },
        {
          "internalType": "address payable",
          "name": "owner",
          "type": "address"
        },
        {
          "internalType": "bool",
          "name": "sale",
          "type": "bool"
        }
      ],
      "payable": false,
      "stateMutability": "view",
      "type": "function"
    },
    {
      "constant": false,
      "inputs": [
        {
          "internalType": "string",
          "name": "_name",
          "type": "string"
        },
        {
          "internalType": "uint256",
          "name": "_price",
          "type": "uint256"
        },
        {
          "internalType": "bool",
          "name": "_sale",
          "type": "bool"
        }
      ],
      "name": "createProduct",
      "outputs": [],
      "payable": false,
      "stateMutability": "nonpayable",
      "type": "function"
    },
    {
      "constant": false,
      "inputs": [
        {
          "internalType": "uint256",
          "name": "_id",
          "type": "uint256"
        },
        {
          "internalType": "bool",
          "name": "_sale",
          "type": "bool"
        }
      ],
      "name": "markForSale",
      "outputs": [],
      "payable": false,
      "stateMutability": "nonpayable",
      "type": "function"
    },
    {
      "constant": false,
      "inputs": [
        {
          "internalType": "uint256",
          "name": "_id",
          "type": "uint256"
        },
        {
          "internalType": "string",
          "name": "_name",
          "type": "string"
        },
        {
          "internalType": "uint256",
          "name": "_price",
          "type": "uint256"
        }
      ],
      "name": "updateProduct",
      "outputs": [],
      "payable": false,
      "stateMutability": "nonpayable",
      "type": "function"
    },
    {
      "constant": false,
      "inputs": [
        {
          "internalType": "uint256",
          "name": "_id",
          "type": "uint256"
        },
        {
          "internalType": "uint256",
          "name": "_price",
          "type": "uint256"
        }
      ],
      "name": "changePrice",
      "outputs": [],
      "payable": false,
      "stateMutability": "nonpayable",
      "type": "function"
    },
    {
      "constant": false,
      "inputs": [
        {
          "internalType": "uint256",
          "name": "_id",
          "type": "uint256"
        }
      ],
      "name": "purchaseProduct",
      "outputs": [],
      "payable": true,
      "stateMutability": "payable",
      "type": "function"
    }
  ],
  "bytecode": "0x608060405260006001553480156200001657600080fd5b506040518060400160405280601b81526020017f4461707020556e6976657273697479204d61726b6574706c61636500000000008152506000908051906020019062000064929190620000ac565b5033600360006101000a81548173ffffffffffffffffffffffffffffffffffffffff021916908373ffffffffffffffffffffffffffffffffffffffff1602179055506200015b565b828054600181600116156101000203166002900490600052602060002090601f016020900481019282601f10620000ef57805160ff191683800117855562000120565b8280016001018555821562000120579182015b828111156200011f57825182559160200191906001019062000102565b5b5090506200012f919062000133565b5090565b6200015891905b80821115620001545760008160009055506001016200013a565b5090565b90565b611cec806200016b6000396000f3fe60806040526004361061007b5760003560e01c8063a100560e1161004e578063a100560e1461031a578063b3de019c14610361578063e0f6ef87146103a6578063fe6b6e67146103d15761007b565b806306fdde031461008057806338e76a031461011057806353488deb1461013e5780637acc0b201461021a575b600080fd5b34801561008c57600080fd5b506100956104af565b6040518080602001828103825283818151815260200191508051906020019080838360005b838110156100d55780820151818401526020810190506100ba565b50505050905090810190601f1680156101025780820380516001836020036101000a031916815260200191505b509250505060405180910390f35b61013c6004803603602081101561012657600080fd5b810190808035906020019092919050505061054d565b005b34801561014a57600080fd5b506102186004803603606081101561016157600080fd5b81019080803590602001909291908035906020019064010000000081111561018857600080fd5b82018360208201111561019a57600080fd5b803590602001918460018302840111640100000000831117156101bc57600080fd5b91908080601f016020809104026020016040519081016040528093929190818152602001838380828437600081840152601f19601f82011690508083019250505050505050919291929080359060200190929190505050610ccb565b005b34801561022657600080fd5b506102536004803603602081101561023d57600080fd5b8101908080359060200190929190505050611068565b60405180868152602001806020018581526020018473ffffffffffffffffffffffffffffffffffffffff1673ffffffffffffffffffffffffffffffffffffffff16815260200183151515158152602001828103825286818151815260200191508051906020019080838360005b838110156102db5780820151818401526020810190506102c0565b50505050905090810190601f1680156103085780820380516001836020036101000a031916815260200191505b50965050505050505060405180910390f35b34801561032657600080fd5b5061035f6004803603604081101561033d57600080fd5b8101908080359060200190929190803515159060200190929190505050611163565b005b34801561036d57600080fd5b506103a46004803603604081101561038457600080fd5b8101908080359060200190929190803590602001909291905050506114fc565b005b3480156103b257600080fd5b506103bb61188f565b6040518082815260200191505060405180910390f35b3480156103dd57600080fd5b506104ad600480360360608110156103f457600080fd5b810190808035906020019064010000000081111561041157600080fd5b82018360208201111561042357600080fd5b8035906020019184600183028401116401000000008311171561044557600080fd5b91908080601f016020809104026020016040519081016040528093929190818152602001838380828437600081840152601f19601f82011690508083019250505050505050919291929080359060200190929190803515159060200190929190505050611895565b005b60008054600181600116156101000203166002900480601f0160208091040260200160405190810160405280929190818152602001828054600181600116156101000203166002900480156105455780601f1061051a57610100808354040283529160200191610545565b820191906000526020600020905b81548152906001019060200180831161052857829003601f168201915b505050505081565b610555611b78565b600260008381526020019081526020016000206040518060a001604052908160008201548152602001600182018054600181600116156101000203166002900480601f0160208091040260200160405190810160405280929190818152602001828054600181600116156101000203166002900480156106165780601f106105eb57610100808354040283529160200191610616565b820191906000526020600020905b8154815290600101906020018083116105f957829003601f168201915b50505050508152602001600282015481526020016003820160009054906101000a900473ffffffffffffffffffffffffffffffffffffffff1673ffffffffffffffffffffffffffffffffffffffff1673ffffffffffffffffffffffffffffffffffffffff1681526020016003820160149054906101000a900460ff1615151515815250509050600081606001519050600082600001511180156106bf5750600154826000015111155b610731576040517f08c379a000000000000000000000000000000000000000000000000000000000815260040180806020018281038252600e8152602001807f456e7465722076616c696420696400000000000000000000000000000000000081525060200191505060405180910390fd5b81604001513410156107ab576040517f08c379a000000000000000000000000000000000000000000000000000000000815260040180806020018281038252601b8152602001807f5472616e736665722074686520636f727265637420616d6f756e74000000000081525060200191505060405180910390fd5b8073ffffffffffffffffffffffffffffffffffffffff163373ffffffffffffffffffffffffffffffffffffffff16141561084d576040517f08c379a00000000000000000000000000000000000000000000000000000000081526004018080602001828103825260168152602001807f42757965722063616e6e6f742062652073656c6c65720000000000000000000081525060200191505060405180910390fd5b6001151582608001511515146108cb576040517f08c379a000000000000000000000000000000000000000000000000000000000815260040180806020018281038252601b8152602001807f50726f64756374206e6f74206d61726b656420666f722073616c65000000000081525060200191505060405180910390fd5b33826060019073ffffffffffffffffffffffffffffffffffffffff16908173ffffffffffffffffffffffffffffffffffffffff1681525050816002600085815260200190815260200160002060008201518160000155602082015181600101908051906020019061093d929190611bbf565b506040820151816002015560608201518160030160006101000a81548173ffffffffffffffffffffffffffffffffffffffff021916908373ffffffffffffffffffffffffffffffffffffffff16021790555060808201518160030160146101000a81548160ff021916908315150217905550905050600360009054906101000a900473ffffffffffffffffffffffffffffffffffffffff1673ffffffffffffffffffffffffffffffffffffffff168173ffffffffffffffffffffffffffffffffffffffff161415610a54578073ffffffffffffffffffffffffffffffffffffffff166108fc349081150290604051600060405180830381858888f19350505050158015610a4e573d6000803e3d6000fd5b50610bcf565b600360009054906101000a900473ffffffffffffffffffffffffffffffffffffffff1673ffffffffffffffffffffffffffffffffffffffff163373ffffffffffffffffffffffffffffffffffffffff161415610b03578073ffffffffffffffffffffffffffffffffffffffff166108fc6064605f340281610ad157fe5b049081150290604051600060405180830381858888f19350505050158015610afd573d6000803e3d6000fd5b50610bce565b8073ffffffffffffffffffffffffffffffffffffffff166108fc6064605f340281610b2a57fe5b049081150290604051600060405180830381858888f19350505050158015610b56573d6000803e3d6000fd5b50600360009054906101000a900473ffffffffffffffffffffffffffffffffffffffff1673ffffffffffffffffffffffffffffffffffffffff166108fc60646005340281610ba057fe5b049081150290604051600060405180830381858888f19350505050158015610bcc573d6000803e3d6000fd5b505b5b7f79558d0d7d4d900e2f15c4cc0a665f1acdbe415e44de900ecdd1e5bf12b56f4e6001548360200151846040015133600060405180868152602001806020018581526020018473ffffffffffffffffffffffffffffffffffffffff1673ffffffffffffffffffffffffffffffffffffffff16815260200183151515158152602001828103825286818151815260200191508051906020019080838360005b83811015610c88578082015181840152602081019050610c6d565b50505050905090810190601f168015610cb55780820380516001836020036101000a031916815260200191505b50965050505050505060405180910390a1505050565b610cd3611b78565b600260008581526020019081526020016000206040518060a001604052908160008201548152602001600182018054600181600116156101000203166002900480601f016020809104026020016040519081016040528092919081815260200182805460018160011615610100020316600290048015610d945780601f10610d6957610100808354040283529160200191610d94565b820191906000526020600020905b815481529060010190602001808311610d7757829003601f168201915b50505050508152602001600282015481526020016003820160009054906101000a900473ffffffffffffffffffffffffffffffffffffffff1673ffffffffffffffffffffffffffffffffffffffff1673ffffffffffffffffffffffffffffffffffffffff1681526020016003820160149054906101000a900460ff1615151515815250509050806060015173ffffffffffffffffffffffffffffffffffffffff163373ffffffffffffffffffffffffffffffffffffffff1614610ea2576040517f08c379a0000000000000000000000000000000000000000000000000000000008152600401808060200182810382526027815260200180611c916027913960400191505060405180910390fd5b828160200181905250818160400181815250508060026000868152602001908152602001600020600082015181600001556020820151816001019080519060200190610eef929190611bbf565b506040820151816002015560608201518160030160006101000a81548173ffffffffffffffffffffffffffffffffffffffff021916908373ffffffffffffffffffffffffffffffffffffffff16021790555060808201518160030160146101000a81548160ff0219169083151502179055509050507fae4c4a90e2aa97bbc7542c08ab7267e18d9e70cec40aaf864118a5e95a7955c6600154826020015183604001518460600151856080015160405180868152602001806020018581526020018473ffffffffffffffffffffffffffffffffffffffff1673ffffffffffffffffffffffffffffffffffffffff16815260200183151515158152602001828103825286818151815260200191508051906020019080838360005b83811015611024578082015181840152602081019050611009565b50505050905090810190601f1680156110515780820380516001836020036101000a031916815260200191505b50965050505050505060405180910390a150505050565b6002602052806000526040600020600091509050806000015490806001018054600181600116156101000203166002900480601f01602080910402602001604051908101604052809291908181526020018280546001816001161561010002031660029004801561111a5780601f106110ef5761010080835404028352916020019161111a565b820191906000526020600020905b8154815290600101906020018083116110fd57829003601f168201915b5050505050908060020154908060030160009054906101000a900473ffffffffffffffffffffffffffffffffffffffff16908060030160149054906101000a900460ff16905085565b61116b611b78565b600260008481526020019081526020016000206040518060a001604052908160008201548152602001600182018054600181600116156101000203166002900480601f01602080910402602001604051908101604052809291908181526020018280546001816001161561010002031660029004801561122c5780601f106112015761010080835404028352916020019161122c565b820191906000526020600020905b81548152906001019060200180831161120f57829003601f168201915b50505050508152602001600282015481526020016003820160009054906101000a900473ffffffffffffffffffffffffffffffffffffffff1673ffffffffffffffffffffffffffffffffffffffff1673ffffffffffffffffffffffffffffffffffffffff1681526020016003820160149054906101000a900460ff1615151515815250509050806060015173ffffffffffffffffffffffffffffffffffffffff163373ffffffffffffffffffffffffffffffffffffffff161461133a576040517f08c379a0000000000000000000000000000000000000000000000000000000008152600401808060200182810382526027815260200180611c916027913960400191505060405180910390fd5b818160800190151590811515815250508060026000858152602001908152602001600020600082015181600001556020820151816001019080519060200190611384929190611bbf565b506040820151816002015560608201518160030160006101000a81548173ffffffffffffffffffffffffffffffffffffffff021916908373ffffffffffffffffffffffffffffffffffffffff16021790555060808201518160030160146101000a81548160ff0219169083151502179055509050507fae4c4a90e2aa97bbc7542c08ab7267e18d9e70cec40aaf864118a5e95a7955c6600154826020015183604001518460600151856080015160405180868152602001806020018581526020018473ffffffffffffffffffffffffffffffffffffffff1673ffffffffffffffffffffffffffffffffffffffff16815260200183151515158152602001828103825286818151815260200191508051906020019080838360005b838110156114b957808201518184015260208101905061149e565b50505050905090810190601f1680156114e65780820380516001836020036101000a031916815260200191505b50965050505050505060405180910390a1505050565b611504611b78565b600260008481526020019081526020016000206040518060a001604052908160008201548152602001600182018054600181600116156101000203166002900480601f0160208091040260200160405190810160405280929190818152602001828054600181600116156101000203166002900480156115c55780601f1061159a576101008083540402835291602001916115c5565b820191906000526020600020905b8154815290600101906020018083116115a857829003601f168201915b50505050508152602001600282015481526020016003820160009054906101000a900473ffffffffffffffffffffffffffffffffffffffff1673ffffffffffffffffffffffffffffffffffffffff1673ffffffffffffffffffffffffffffffffffffffff1681526020016003820160149054906101000a900460ff1615151515815250509050806060015173ffffffffffffffffffffffffffffffffffffffff163373ffffffffffffffffffffffffffffffffffffffff16146116d3576040517f08c379a000000000000000000000000000000000000000000000000000000000815260040180806020018281038252602c815260200180611c65602c913960400191505060405180910390fd5b818160400181815250508060026000858152602001908152602001600020600082015181600001556020820151816001019080519060200190611717929190611bbf565b506040820151816002015560608201518160030160006101000a81548173ffffffffffffffffffffffffffffffffffffffff021916908373ffffffffffffffffffffffffffffffffffffffff16021790555060808201518160030160146101000a81548160ff0219169083151502179055509050507fae4c4a90e2aa97bbc7542c08ab7267e18d9e70cec40aaf864118a5e95a7955c6600154826020015183604001518460600151856080015160405180868152602001806020018581526020018473ffffffffffffffffffffffffffffffffffffffff1673ffffffffffffffffffffffffffffffffffffffff16815260200183151515158152602001828103825286818151815260200191508051906020019080838360005b8381101561184c578082015181840152602081019050611831565b50505050905090810190601f1680156118795780820380516001836020036101000a031916815260200191505b50965050505050505060405180910390a1505050565b60015481565b600083511161190c576040517f08c379a00000000000000000000000000000000000000000000000000000000081526004018080602001828103825260128152602001807f456e74657220612076616c6964206e616d65000000000000000000000000000081525060200191505060405180910390fd5b60008211611982576040517f08c379a00000000000000000000000000000000000000000000000000000000081526004018080602001828103825260138152602001807f456e74657220612076616c69642070726963650000000000000000000000000081525060200191505060405180910390fd5b6001600081548092919060010191905055506040518060a0016040528060015481526020018481526020018381526020013373ffffffffffffffffffffffffffffffffffffffff168152602001821515815250600260006001548152602001908152602001600020600082015181600001556020820151816001019080519060200190611a10929190611bbf565b506040820151816002015560608201518160030160006101000a81548173ffffffffffffffffffffffffffffffffffffffff021916908373ffffffffffffffffffffffffffffffffffffffff16021790555060808201518160030160146101000a81548160ff0219169083151502179055509050507fbc59c0c8165864dcceb377dd07d8f431d4303f8e501cb0a0374a10cc68d718366001548484338560405180868152602001806020018581526020018473ffffffffffffffffffffffffffffffffffffffff1673ffffffffffffffffffffffffffffffffffffffff16815260200183151515158152602001828103825286818151815260200191508051906020019080838360005b83811015611b35578082015181840152602081019050611b1a565b50505050905090810190601f168015611b625780820380516001836020036101000a031916815260200191505b50965050505050505060405180910390a1505050565b6040518060a00160405280600081526020016060815260200160008152602001600073ffffffffffffffffffffffffffffffffffffffff1681526020016000151581525090565b828054600181600116156101000203166002900490600052602060002090601f016020900481019282601f10611c0057805160ff1916838001178555611c2e565b82800160010185558215611c2e579182015b82811115611c2d578251825591602001919060010190611c12565b5b509050611c3b9190611c3f565b5090565b611c6191905b80821115611c5d576000816000905550600101611c45565b5090565b9056fe4f6e6c792074686520636f6e7472616374206f776e65722063616e206368616e6765206974732076616c75654f6e6c792074686520636f6e7472616374206f776e65722063616e206d61726b65642073616c65a265627a7a723158201fe0553dd8012da8182a15e826434ff4005cd66524cb5001850fbd0b54d3c7a964736f6c63430005100032",
  "source": "pragma solidity ^0.5.0;\n\ncontract Marketplace {\n    string public name;\n    uint256 public productCount = 0;\n    mapping(uint256 => Product) public products;\n    address payable ownerContract;\n\n    struct Product {\n        uint256 id;\n        string name;\n        uint256 price;\n        address payable owner;\n        bool sale;\n    }\n\n    event ProductCreated(\n        uint256 id,\n        string name,\n        uint256 price,\n        address payable owner,\n        bool sale\n    );\n\n    event ProductPurchased(\n        uint256 id,\n        string name,\n        uint256 price,\n        address payable owner,\n        bool sale\n    );\n\n    event ProductChanged(\n        uint256 id,\n        string name,\n        uint256 price,\n        address payable owner,\n        bool sale\n    );\n\n    constructor() public {\n        name = \"Dapp University Marketplace\";\n        ownerContract = address(msg.sender);\n    }\n\n    function createProduct(\n        string memory _name,\n        uint256 _price,\n        bool _sale\n    ) public {\n        //Require a name\n        require(bytes(_name).length > 0, \"Enter a valid name\");\n        //Requiere a valid price\n        require(_price > 0, \"Enter a valid price\");\n        //Increment product count\n        productCount++;\n        //Create the product\n        products[productCount] = Product(\n            productCount,\n            _name,\n            _price,\n            msg.sender,\n            _sale\n        );\n        //Trigger an event\n        emit ProductCreated(productCount, _name, _price, msg.sender, _sale);\n    }\n\n    function markForSale(uint256 _id, bool _sale) public {\n        //Fetch the product and make a copy of it\n        Product memory _product = products[_id];\n        //Require that the buyer is not the seller\n        require(\n            msg.sender == _product.owner,\n            \"Only the contract owner can marked sale\"\n        );\n        //Mark as purchased\n        _product.sale = _sale;\n        //Update the product\n        products[_id] = _product;\n        emit ProductChanged(\n            productCount,\n            _product.name,\n            _product.price,\n            _product.owner,\n            _product.sale\n        );\n    }\n   function updateProduct(uint256 _id, string memory _name, uint256 _price) public {\n        //Fetch the product and make a copy of it\n        Product memory _product = products[_id];\n        //Require that the buyer is not the seller\n        require(\n            msg.sender == _product.owner,\n            \"Only the contract owner can marked sale\"\n        );\n        //Mark as purchased\n        _product.name = _name;\n        _product.price = _price;\n        //Update the product\n        products[_id] = _product;\n        emit ProductChanged(\n            productCount,\n            _product.name,\n            _product.price,\n            _product.owner,\n            _product.sale\n        );\n    }\n\n    function changePrice(uint256 _id, uint256 _price) public {\n        //Fetch the product and make a copy of it\n        Product memory _product = products[_id];\n        //Require that the buyer is not the seller\n        require(\n            msg.sender == _product.owner,\n            \"Only the contract owner can change its value\"\n        );\n        //Mark as purchased\n        _product.price = _price;\n        //Update the product\n        products[_id] = _product;\n        emit ProductChanged(\n            productCount,\n            _product.name,\n            _product.price,\n            _product.owner,\n            _product.sale\n        );\n    }\n\n    function purchaseProduct(uint256 _id) public payable {\n        //Fetch the product and make a copy of it\n        Product memory _product = products[_id];\n        //Fetch the owner\n        address payable _seller = _product.owner;\n        //Make sure the product has valid id\n        require(\n            _product.id > 0 && _product.id <= productCount,\n            \"Enter valid id\"\n        );\n        //Require that there is enough Ether in the transaction\n        require(msg.value >= _product.price, \"Transfer the correct amount\");\n        //Require that the buyer is not the seller\n        require(msg.sender != _seller, \"Buyer cannot be seller\");\n        //Require that Product is marked for sale\n        require(_product.sale == true, \"Product not marked for sale\");\n        //Transfer ownership to the buyer\n        _product.owner = msg.sender;\n        //Update the product\n        products[_id] = _product;\n        //Pay the seller by sending them Ether\n\n        if (_seller == ownerContract) {\n          address(_seller).transfer(msg.value);\n        } else if ( msg.sender == ownerContract) {\n          address(_seller).transfer((msg.value * 95) / 100);\n        } else {\n            address(_seller).transfer((msg.value * 95) / 100);\n            address(ownerContract).transfer((msg.value * 5) / 100);\n        }\n\n        //Trigger an event\n        emit ProductPurchased(\n            productCount,\n            _product.name,\n            _product.price,\n            msg.sender,\n            false\n        );\n    }\n}\n",
  "sourcePath": "/home/mendes/Documents/PUC/blockchain/src/contracts/Marketplace.sol",
  "compiler": {
    "name": "solc",
    "version": "0.5.16+commit.9c3226ce.Emscripten.clang"
  },
  "schemaVersion": "3.4.4",
  "updatedAt": "2021-12-23T04:55:42.373Z",
  "networkType": "ethereum",
  "devdoc": {
    "methods": {}
  },
  "userdoc": {
    "methods": {}
  }
}