{
  "contractName": "Marketplace",
  "abi": [
    {
      "inputs": [],
      "payable": false,
      "stateMutability": "nonpayable",
      "type": "constructor"
    },
    {
      "anonymous": false,
      "inputs": [
        {
          "indexed": false,
          "internalType": "uint256",
          "name": "id",
          "type": "uint256"
        },
        {
          "indexed": false,
          "internalType": "string",
          "name": "name",
          "type": "string"
        },
        {
          "indexed": false,
          "internalType": "uint256",
          "name": "price",
          "type": "uint256"
        },
        {
          "indexed": false,
          "internalType": "address payable",
          "name": "owner",
          "type": "address"
        },
        {
          "indexed": false,
          "internalType": "bool",
          "name": "sale",
          "type": "bool"
        }
      ],
      "name": "ProductChanged",
      "type": "event"
    },
    {
      "anonymous": false,
      "inputs": [
        {
          "indexed": false,
          "internalType": "uint256",
          "name": "id",
          "type": "uint256"
        },
        {
          "indexed": false,
          "internalType": "string",
          "name": "name",
          "type": "string"
        },
        {
          "indexed": false,
          "internalType": "uint256",
          "name": "price",
          "type": "uint256"
        },
        {
          "indexed": false,
          "internalType": "address payable",
          "name": "owner",
          "type": "address"
        },
        {
          "indexed": false,
          "internalType": "bool",
          "name": "sale",
          "type": "bool"
        }
      ],
      "name": "ProductCreated",
      "type": "event"
    },
    {
      "anonymous": false,
      "inputs": [
        {
          "indexed": false,
          "internalType": "uint256",
          "name": "id",
          "type": "uint256"
        },
        {
          "indexed": false,
          "internalType": "string",
          "name": "name",
          "type": "string"
        },
        {
          "indexed": false,
          "internalType": "uint256",
          "name": "price",
          "type": "uint256"
        },
        {
          "indexed": false,
          "internalType": "address payable",
          "name": "owner",
          "type": "address"
        },
        {
          "indexed": false,
          "internalType": "bool",
          "name": "sale",
          "type": "bool"
        }
      ],
      "name": "ProductPurchased",
      "type": "event"
    },
    {
      "constant": true,
      "inputs": [],
      "name": "name",
      "outputs": [
        {
          "internalType": "string",
          "name": "",
          "type": "string"
        }
      ],
      "payable": false,
      "stateMutability": "view",
      "type": "function"
    },
    {
      "constant": true,
      "inputs": [],
      "name": "productCount",
      "outputs": [
        {
          "internalType": "uint256",
          "name": "",
          "type": "uint256"
        }
      ],
      "payable": false,
      "stateMutability": "view",
      "type": "function"
    },
    {
      "constant": true,
      "inputs": [
        {
          "internalType": "uint256",
          "name": "",
          "type": "uint256"
        }
      ],
      "name": "products",
      "outputs": [
        {
          "internalType": "uint256",
          "name": "id",
          "type": "uint256"
        },
        {
          "internalType": "string",
          "name": "name",
          "type": "string"
        },
        {
          "internalType": "uint256",
          "name": "price",
          "type": "uint256"
        },
        {
          "internalType": "address payable",
          "name": "owner",
          "type": "address"
        },
        {
          "internalType": "bool",
          "name": "sale",
          "type": "bool"
        }
      ],
      "payable": false,
      "stateMutability": "view",
      "type": "function"
    },
    {
      "constant": false,
      "inputs": [
        {
          "internalType": "string",
          "name": "_name",
          "type": "string"
        },
        {
          "internalType": "uint256",
          "name": "_price",
          "type": "uint256"
        },
        {
          "internalType": "bool",
          "name": "_sale",
          "type": "bool"
        }
      ],
      "name": "createProduct",
      "outputs": [],
      "payable": false,
      "stateMutability": "nonpayable",
      "type": "function"
    },
    {
      "constant": false,
      "inputs": [
        {
          "internalType": "uint256",
          "name": "_id",
          "type": "uint256"
        },
        {
          "internalType": "bool",
          "name": "_sale",
          "type": "bool"
        }
      ],
      "name": "markForSale",
      "outputs": [],
      "payable": false,
      "stateMutability": "nonpayable",
      "type": "function"
    },
    {
      "constant": false,
      "inputs": [
        {
          "internalType": "uint256",
          "name": "_id",
          "type": "uint256"
        },
        {
          "internalType": "uint256",
          "name": "_price",
          "type": "uint256"
        }
      ],
      "name": "changePrice",
      "outputs": [],
      "payable": false,
      "stateMutability": "nonpayable",
      "type": "function"
    },
    {
      "constant": false,
      "inputs": [
        {
          "internalType": "uint256",
          "name": "_id",
          "type": "uint256"
        }
      ],
      "name": "purchaseProduct",
      "outputs": [],
      "payable": true,
      "stateMutability": "payable",
      "type": "function"
    }
  ],
  "bytecode": "0x608060405260006001553480156200001657600080fd5b506040518060400160405280601b81526020017f4461707020556e6976657273697479204d61726b6574706c61636500000000008152506000908051906020019062000064929190620000ac565b5033600360006101000a81548173ffffffffffffffffffffffffffffffffffffffff021916908373ffffffffffffffffffffffffffffffffffffffff1602179055506200015b565b828054600181600116156101000203166002900490600052602060002090601f016020900481019282601f10620000ef57805160ff191683800117855562000120565b8280016001018555821562000120579182015b828111156200011f57825182559160200191906001019062000102565b5b5090506200012f919062000133565b5090565b6200015891905b80821115620001545760008160009055506001016200013a565b5090565b90565b611715806200016b6000396000f3fe6080604052600436106100705760003560e01c8063a100560e1161004e578063a100560e14610233578063b3de019c1461027a578063e0f6ef87146102bf578063fe6b6e67146102ea57610070565b806306fdde031461007557806338e76a03146101055780637acc0b2014610133575b600080fd5b34801561008157600080fd5b5061008a6103c8565b6040518080602001828103825283818151815260200191508051906020019080838360005b838110156100ca5780820151818401526020810190506100af565b50505050905090810190601f1680156100f75780820380516001836020036101000a031916815260200191505b509250505060405180910390f35b6101316004803603602081101561011b57600080fd5b8101908080359060200190929190505050610466565b005b34801561013f57600080fd5b5061016c6004803603602081101561015657600080fd5b8101908080359060200190929190505050610a91565b60405180868152602001806020018581526020018473ffffffffffffffffffffffffffffffffffffffff1673ffffffffffffffffffffffffffffffffffffffff16815260200183151515158152602001828103825286818151815260200191508051906020019080838360005b838110156101f45780820151818401526020810190506101d9565b50505050905090810190601f1680156102215780820380516001836020036101000a031916815260200191505b50965050505050505060405180910390f35b34801561023f57600080fd5b506102786004803603604081101561025657600080fd5b8101908080359060200190929190803515159060200190929190505050610b8c565b005b34801561028657600080fd5b506102bd6004803603604081101561029d57600080fd5b810190808035906020019092919080359060200190929190505050610f25565b005b3480156102cb57600080fd5b506102d46112b8565b6040518082815260200191505060405180910390f35b3480156102f657600080fd5b506103c66004803603606081101561030d57600080fd5b810190808035906020019064010000000081111561032a57600080fd5b82018360208201111561033c57600080fd5b8035906020019184600183028401116401000000008311171561035e57600080fd5b91908080601f016020809104026020016040519081016040528093929190818152602001838380828437600081840152601f19601f820116905080830192505050505050509192919290803590602001909291908035151590602001909291905050506112be565b005b60008054600181600116156101000203166002900480601f01602080910402602001604051908101604052809291908181526020018280546001816001161561010002031660029004801561045e5780601f106104335761010080835404028352916020019161045e565b820191906000526020600020905b81548152906001019060200180831161044157829003601f168201915b505050505081565b61046e6115a1565b600260008381526020019081526020016000206040518060a001604052908160008201548152602001600182018054600181600116156101000203166002900480601f01602080910402602001604051908101604052809291908181526020018280546001816001161561010002031660029004801561052f5780601f106105045761010080835404028352916020019161052f565b820191906000526020600020905b81548152906001019060200180831161051257829003601f168201915b50505050508152602001600282015481526020016003820160009054906101000a900473ffffffffffffffffffffffffffffffffffffffff1673ffffffffffffffffffffffffffffffffffffffff1673ffffffffffffffffffffffffffffffffffffffff1681526020016003820160149054906101000a900460ff1615151515815250509050600081606001519050600082600001511180156105d85750600154826000015111155b61064a576040517f08c379a000000000000000000000000000000000000000000000000000000000815260040180806020018281038252600e8152602001807f456e7465722076616c696420696400000000000000000000000000000000000081525060200191505060405180910390fd5b81604001513410156106c4576040517f08c379a000000000000000000000000000000000000000000000000000000000815260040180806020018281038252601b8152602001807f5472616e736665722074686520636f727265637420616d6f756e74000000000081525060200191505060405180910390fd5b8073ffffffffffffffffffffffffffffffffffffffff163373ffffffffffffffffffffffffffffffffffffffff161415610766576040517f08c379a00000000000000000000000000000000000000000000000000000000081526004018080602001828103825260168152602001807f42757965722063616e6e6f742062652073656c6c65720000000000000000000081525060200191505060405180910390fd5b6001151582608001511515146107e4576040517f08c379a000000000000000000000000000000000000000000000000000000000815260040180806020018281038252601b8152602001807f50726f64756374206e6f74206d61726b656420666f722073616c65000000000081525060200191505060405180910390fd5b33826060019073ffffffffffffffffffffffffffffffffffffffff16908173ffffffffffffffffffffffffffffffffffffffff168152505081600260008581526020019081526020016000206000820151816000015560208201518160010190805190602001906108569291906115e8565b506040820151816002015560608201518160030160006101000a81548173ffffffffffffffffffffffffffffffffffffffff021916908373ffffffffffffffffffffffffffffffffffffffff16021790555060808201518160030160146101000a81548160ff0219169083151502179055509050508073ffffffffffffffffffffffffffffffffffffffff166108fc6064605f3402816108f257fe5b049081150290604051600060405180830381858888f1935050505015801561091e573d6000803e3d6000fd5b50600360009054906101000a900473ffffffffffffffffffffffffffffffffffffffff1673ffffffffffffffffffffffffffffffffffffffff166108fc6064600534028161096857fe5b049081150290604051600060405180830381858888f19350505050158015610994573d6000803e3d6000fd5b507f79558d0d7d4d900e2f15c4cc0a665f1acdbe415e44de900ecdd1e5bf12b56f4e6001548360200151846040015133600060405180868152602001806020018581526020018473ffffffffffffffffffffffffffffffffffffffff1673ffffffffffffffffffffffffffffffffffffffff16815260200183151515158152602001828103825286818151815260200191508051906020019080838360005b83811015610a4e578082015181840152602081019050610a33565b50505050905090810190601f168015610a7b5780820380516001836020036101000a031916815260200191505b50965050505050505060405180910390a1505050565b6002602052806000526040600020600091509050806000015490806001018054600181600116156101000203166002900480601f016020809104026020016040519081016040528092919081815260200182805460018160011615610100020316600290048015610b435780601f10610b1857610100808354040283529160200191610b43565b820191906000526020600020905b815481529060010190602001808311610b2657829003601f168201915b5050505050908060020154908060030160009054906101000a900473ffffffffffffffffffffffffffffffffffffffff16908060030160149054906101000a900460ff16905085565b610b946115a1565b600260008481526020019081526020016000206040518060a001604052908160008201548152602001600182018054600181600116156101000203166002900480601f016020809104026020016040519081016040528092919081815260200182805460018160011615610100020316600290048015610c555780601f10610c2a57610100808354040283529160200191610c55565b820191906000526020600020905b815481529060010190602001808311610c3857829003601f168201915b50505050508152602001600282015481526020016003820160009054906101000a900473ffffffffffffffffffffffffffffffffffffffff1673ffffffffffffffffffffffffffffffffffffffff1673ffffffffffffffffffffffffffffffffffffffff1681526020016003820160149054906101000a900460ff1615151515815250509050806060015173ffffffffffffffffffffffffffffffffffffffff163373ffffffffffffffffffffffffffffffffffffffff1614610d63576040517f08c379a00000000000000000000000000000000000000000000000000000000081526004018080602001828103825260278152602001806116ba6027913960400191505060405180910390fd5b818160800190151590811515815250508060026000858152602001908152602001600020600082015181600001556020820151816001019080519060200190610dad9291906115e8565b506040820151816002015560608201518160030160006101000a81548173ffffffffffffffffffffffffffffffffffffffff021916908373ffffffffffffffffffffffffffffffffffffffff16021790555060808201518160030160146101000a81548160ff0219169083151502179055509050507fae4c4a90e2aa97bbc7542c08ab7267e18d9e70cec40aaf864118a5e95a7955c6600154826020015183604001518460600151856080015160405180868152602001806020018581526020018473ffffffffffffffffffffffffffffffffffffffff1673ffffffffffffffffffffffffffffffffffffffff16815260200183151515158152602001828103825286818151815260200191508051906020019080838360005b83811015610ee2578082015181840152602081019050610ec7565b50505050905090810190601f168015610f0f5780820380516001836020036101000a031916815260200191505b50965050505050505060405180910390a1505050565b610f2d6115a1565b600260008481526020019081526020016000206040518060a001604052908160008201548152602001600182018054600181600116156101000203166002900480601f016020809104026020016040519081016040528092919081815260200182805460018160011615610100020316600290048015610fee5780601f10610fc357610100808354040283529160200191610fee565b820191906000526020600020905b815481529060010190602001808311610fd157829003601f168201915b50505050508152602001600282015481526020016003820160009054906101000a900473ffffffffffffffffffffffffffffffffffffffff1673ffffffffffffffffffffffffffffffffffffffff1673ffffffffffffffffffffffffffffffffffffffff1681526020016003820160149054906101000a900460ff1615151515815250509050806060015173ffffffffffffffffffffffffffffffffffffffff163373ffffffffffffffffffffffffffffffffffffffff16146110fc576040517f08c379a000000000000000000000000000000000000000000000000000000000815260040180806020018281038252602c81526020018061168e602c913960400191505060405180910390fd5b8181604001818152505080600260008581526020019081526020016000206000820151816000015560208201518160010190805190602001906111409291906115e8565b506040820151816002015560608201518160030160006101000a81548173ffffffffffffffffffffffffffffffffffffffff021916908373ffffffffffffffffffffffffffffffffffffffff16021790555060808201518160030160146101000a81548160ff0219169083151502179055509050507fae4c4a90e2aa97bbc7542c08ab7267e18d9e70cec40aaf864118a5e95a7955c6600154826020015183604001518460600151856080015160405180868152602001806020018581526020018473ffffffffffffffffffffffffffffffffffffffff1673ffffffffffffffffffffffffffffffffffffffff16815260200183151515158152602001828103825286818151815260200191508051906020019080838360005b8381101561127557808201518184015260208101905061125a565b50505050905090810190601f1680156112a25780820380516001836020036101000a031916815260200191505b50965050505050505060405180910390a1505050565b60015481565b6000835111611335576040517f08c379a00000000000000000000000000000000000000000000000000000000081526004018080602001828103825260128152602001807f456e74657220612076616c6964206e616d65000000000000000000000000000081525060200191505060405180910390fd5b600082116113ab576040517f08c379a00000000000000000000000000000000000000000000000000000000081526004018080602001828103825260138152602001807f456e74657220612076616c69642070726963650000000000000000000000000081525060200191505060405180910390fd5b6001600081548092919060010191905055506040518060a0016040528060015481526020018481526020018381526020013373ffffffffffffffffffffffffffffffffffffffff1681526020018215158152506002600060015481526020019081526020016000206000820151816000015560208201518160010190805190602001906114399291906115e8565b506040820151816002015560608201518160030160006101000a81548173ffffffffffffffffffffffffffffffffffffffff021916908373ffffffffffffffffffffffffffffffffffffffff16021790555060808201518160030160146101000a81548160ff0219169083151502179055509050507fbc59c0c8165864dcceb377dd07d8f431d4303f8e501cb0a0374a10cc68d718366001548484338560405180868152602001806020018581526020018473ffffffffffffffffffffffffffffffffffffffff1673ffffffffffffffffffffffffffffffffffffffff16815260200183151515158152602001828103825286818151815260200191508051906020019080838360005b8381101561155e578082015181840152602081019050611543565b50505050905090810190601f16801561158b5780820380516001836020036101000a031916815260200191505b50965050505050505060405180910390a1505050565b6040518060a00160405280600081526020016060815260200160008152602001600073ffffffffffffffffffffffffffffffffffffffff1681526020016000151581525090565b828054600181600116156101000203166002900490600052602060002090601f016020900481019282601f1061162957805160ff1916838001178555611657565b82800160010185558215611657579182015b8281111561165657825182559160200191906001019061163b565b5b5090506116649190611668565b5090565b61168a91905b8082111561168657600081600090555060010161166e565b5090565b9056fe4f6e6c792074686520636f6e7472616374206f776e65722063616e206368616e6765206974732076616c75654f6e6c792074686520636f6e7472616374206f776e65722063616e206d61726b65642073616c65a265627a7a723158200c7d47513f3656d4ead1f8ebe74476c7724078713ad032352e1d7f14ba7b7f7d64736f6c63430005100032",
  "source": "\r\npragma solidity ^0.5.0;\r\n\r\ncontract Marketplace {\r\n  string public name;\r\n  uint public productCount=0;\r\n  mapping(uint => Product) public products;\r\n  address payable ownerContract;\r\n\r\nstruct Product {\r\n  uint id;\r\n  string name;\r\n  uint price;\r\n  address payable owner;\r\n  bool sale;\r\n}\r\n\r\nevent ProductCreated (\r\n  uint id,\r\n  string name,\r\n  uint price,\r\n  address payable owner,\r\n  bool sale\r\n);\r\n\r\nevent ProductPurchased (\r\n  uint id,\r\n  string name,\r\n  uint price,\r\n  address payable owner,\r\n  bool sale\r\n);\r\n\r\nevent ProductChanged (\r\n  uint id,\r\n  string name,\r\n  uint price,\r\n  address payable owner,\r\n  bool sale\r\n);\r\n\r\n\r\n  constructor() public {\r\n    name = \"Dapp University Marketplace\";\r\n    ownerContract = address(msg.sender);\r\n  }\r\n\r\n  function createProduct(string memory _name, uint _price, bool _sale) public {\r\n    //Require a name\r\n    require(bytes(_name).length > 0, \"Enter a valid name\");\r\n    //Requiere a valid price\r\n    require(_price > 0, \"Enter a valid price\");\r\n    //Increment product count\r\n    productCount++;\r\n    //Create the product\r\n    products[productCount] = Product(productCount, _name, _price, msg.sender, _sale);\r\n    //Trigger an event\r\n    emit ProductCreated(productCount, _name, _price, msg.sender, _sale);\r\n  }\r\n\r\n  function markForSale(uint _id, bool _sale) public {\r\n       //Fetch the product and make a copy of it\r\n    Product memory _product = products[_id];\r\n      //Require that the buyer is not the seller\r\n    require(msg.sender == _product.owner, \"Only the contract owner can marked sale\");\r\n      //Mark as purchased\r\n    _product.sale = _sale;\r\n      //Update the product\r\n    products[_id] = _product;\r\n    emit ProductChanged(productCount, _product.name, _product.price,_product.owner, _product.sale);\r\n  }\r\n\r\n   function changePrice(uint _id, uint _price) public {\r\n       //Fetch the product and make a copy of it\r\n    Product memory _product = products[_id];\r\n      //Require that the buyer is not the seller\r\n    require(msg.sender == _product.owner, \"Only the contract owner can change its value\");\r\n      //Mark as purchased\r\n    _product.price = _price;\r\n      //Update the product\r\n    products[_id] = _product;\r\n    emit ProductChanged(productCount, _product.name, _product.price,_product.owner, _product.sale);\r\n  }\r\n\r\n  function purchaseProduct(uint _id) public payable {\r\n    //Fetch the product and make a copy of it\r\n    Product memory _product = products[_id];\r\n    //Fetch the owner\r\n    address payable _seller = _product.owner;\r\n    //Make sure the product has valid id\r\n    require(_product.id > 0 && _product.id <= productCount, \"Enter valid id\");\r\n    //Require that there is enough Ether in the transaction\r\n    require(msg.value >= _product.price,\"Transfer the correct amount\");\r\n    //Require that the buyer is not the seller\r\n    require(msg.sender != _seller, \"Buyer cannot be seller\");\r\n      //Require that Product is marked for sale\r\n    require(_product.sale == true, \"Product not marked for sale\");\r\n    //Transfer ownership to the buyer\r\n    _product.owner = msg.sender;\r\n    //Update the product\r\n    products[_id] = _product;\r\n    //Pay the seller by sending them Ether\r\n     address(_seller).transfer((msg.value * 95) / 100);\r\n    address(ownerContract).transfer((msg.value * 5) / 100);\r\n    //Trigger an event\r\n    emit ProductPurchased(productCount, _product.name, _product.price, msg.sender, false);\r\n  }\r\n}\r\n\r\n",
  "sourcePath": "C:\\Users\\lucas\\Desktop\\Nova pasta (2)\\pucmg-bcsc-01\\src\\contracts\\Marketplace.sol",
  "compiler": {
    "name": "solc",
    "version": "0.5.16+commit.9c3226ce.Emscripten.clang"
  },
  "schemaVersion": "3.4.4",
  "updatedAt": "2021-12-23T00:52:40.050Z",
  "networkType": "ethereum",
  "devdoc": {
    "methods": {}
  },
  "userdoc": {
    "methods": {}
  }
}